:04000000FDEF01F01F
:08000800046ED8CF05F0E0CF33
:1000100006F00001E9CF0CF0EACF07F0E1CF08F0DD
:10002000E2CF09F0D9CF0AF0DACF0BF0F3CF12F01C
:10003000F4CF13F0FACF14F0F5CF15F0F6CF16F099
:10004000F7CF17F000C00EF001C00FF002C010F0A3
:1000500003C011F09DAA30EF00F09EBA57EF00F0F8
:100060000EC000F00FC001F010C002F011C003F08C
:100070000CC0E9FF07C0EAFF078E08C0E1FF09C016
:10008000E2FF0AC0D9FF0BC0DAFF12C0F3FF13C0B2
:10009000F4FF14C0FAFF15C0F5FF16C0F6FF17C035
:1000A000F7FF045006C0E0FF05C0D8FF10009EAA6D
:1000B000FED7AECF24F025809E9A30EF00F0006A84
:1000C000016A2D50D8902EB00026003201322EB297
:1000D0000026003201322EB40026003201322EB644
:1000E0000026003201322EB80026003201322EBA2C
:1000F0000026003201322EBC0026003201322EBE14
:10010000002600320132EBEF00F02B6A296A0A0E5A
:100110002A6E286A2650271003E1000E016EB9D01E
:100120002B502B2A2624E96E000E2720EA6EEFCFF3
:100130002CF02C502D080CE1010E296E2B502B2A8F
:100140002624E96E000E2720EA6EEFCF2CF00CD0AB
:100150002C502B0809E12B502B2A2624E96E000E87
:100160002720EA6EEFCF2CF02C502F08D8B089D082
:100170002C503908D8A085D02C5030081EE12B50C7
:100180002624E96E000E2720EA6EEF50780809E079
:100190002B502624E96E000E2720EA6EEF505808F7
:1001A0000CE1100E2A6E2B2A2B502B2A2624E96EE6
:1001B000000E2720EA6EEFCF2CF02A500A081AE131
:1001C0002C502F0816E22C50390813E30A0E2D6E1E
:1001D00028C02EF074D7300E2C5C0124286E2B50D2
:1001E0002B2A2624E96E000E2720EA6EEFCF2CF092
:1001F000E7D747D02A50100844E12C50600806E2A7
:100200002C507A0803E32C50DF0B01D02C502C6EBD
:100210002C502F0803E22C50390806E22C504008DD
:1002200030E22C5046082DE32C502F080CE22C50C5
:10023000390809E328382D6EF00E2D16300E2C5C8F
:100240002D24286E09D028382D6EF00E2D16410E63
:100250002C5C0A0F2D24286E2B502B2A2624E96EA5
:10026000000E2720EA6EEFCF2CF02C50600806E23B
:100270002C507A0803E32C50DF0B01D02C502C6E4D
:10028000C7D7292C04D02A500A0801E1286C28C0BD
:1002900001F038EF02F0EA6A280EE96EEF500DE047
:1002A000060E016E006A002EFED7012EFBD77B0ED4
:1002B000006E002EFED7EF2EF3D712002E50016AEB
:1002C0002D5C03E22DC000F00CD0006A080E2F6EEA
:1002D0002D3600362E50005CD8B0006E01362F2E21
:1002E000F7D71200276A2650090803E326C027F033
:1002F00017D026C021F021C02DF00A0E2E6EDEDFB1
:1003000000C021F026C022F022C02DF00A0E2E6E71
:10031000D5DF01C022F02250100DF3502124276EAA
:1003200027C001F01200200E28A8300E296E27C029
:1003300000F027AE08D0001E002A00C027F02D0EC6
:10034000296E288E2880015027C02DF0640E2E6E55
:10035000B5DF00C027F0300E01242A6E27C02DF033
:100360000A0E2E6EABDF300E00242C6E300E0124F0
:100370002B6E29C000F0300E2A5C04E0288228BED3
:10038000288412D029C02AF0200E296E300E2B5C52
:1003900004E0288028BE288207D0D8A4288004E161
:1003A0002AC02BF0200E2A6E28B405D028B207D020
:1003B00028B009D00CD029509EA8FED7AD6E2A5087
:1003C0009EA8FED7AD6E2B509EA8FED7AD6E2C50CA
:1003D0009EA8FED7AD6E12002750265C05E29490D1
:1003E0008B8094928B9207D094908B9094928B7286
:1003F0000A0E286E50DF88EF02F0F86AD09E078E52
:10040000810EAF6EA60EAC6E900EAB6E050E206E1A
:100410002590C180C182C184C196070EB46E196A4D
:100420001A6AD26AC180C182C184C196C290C66A6A
:10043000D190850ECD6E070EB46E9550956E965088
:10044000966E100E006E002EFED70000B450A19CD8
:10045000B56AD36A9D8AC00EF21294908B809492F2
:100460008B9225A007D02590276A240E266E4DD6A4
:1004700001C020F0938281B21FD0938081A01CD054
:10048000010E1F26040E266EFA0E286E04DF262E9D
:10049000FBD71FC026F026DF01C026F0200E9EA845
:1004A000FED7AD6E26C027F0180E286E3CDF200E5A
:1004B0009EA8FED7AD6E21D0938081B01ED09382CE
:1004C00081A21BD0010E1F5E040E266EFA0E286E4E
:1004D000E2DE262EFBD71FC026F004DF01C026F087
:1004E000200E9EA8FED7AD6E26C027F0180E286EEF
:1004F0001ADF200E9EA8FED7AD6E1FC026F0F2DEDA
:10050000956A01C08CFF1FC026F020C027F064D779
:0A051000640E286EC0DEA5D70300BC
:020000040030CA
:0E00000000220E0E000081000FC00FE00F4026
:00000001FF
;PIC18F458
;CRC=6BC4  CREATED="08-mars-21 18:52"
